:020000040800F2
:10000000C031002089440008591400085B1400081E
:100010005D1400085F14000861140008000000006F
:100020000000000000000000000000006314000851
:1000300065140008000000007FC700087142000836
:10004000A3440008A3440008A3440008A3440008F4
:10005000A3440008A3440008A3440008A3440008E4
:10006000A3440008A3440008A3440008A3440008D4
:10007000A3440008A3440008A3440008A3440008C4
:10008000A3440008A3440008A3440008A3440008B4
:10009000A3440008A3440008A3440008A3440008A4
:1000A000A3440008A3440008A3440008A344000894
:1000B000A3440008A3440008A3440008A344000884
:1000C000A3440008A3440008A3440008A344000874
:1000D000A344000819440008A3440008A3440008EE
:1000E000A3440008A3440008A3440008A344000854
:1000F000A3440008A3440008A3440008A344000844
:10010000A3440008A3440008A3440008A344000833
:10011000A3440008A3440008A3440008A344000823
:10012000A3440008A3440008A3440008A344000813
:1001300000F002F800F061F80AA090E8000C824498
:100140008344AAF10107DA4501D100F056F8AFF275
:10015000090EBAE80F0013F0010F18BFFB1A43F0A5
:10016000010318477CED00009CED00000A444FF0AD
:10017000000C10F8013B13F0070408BF10F8014B06
:100180001D1108BF10F8015B641E05D010F8016B4B
:10019000641E01F8016BF9D113F0080F1EBF10F8AF
:1001A000014BAD1C0C1B09D16D1E58BF01F801CBD2
:1001B000FAD505E014F8016B01F8016B6D1EF9D555
:1001C0009142D6D37047000000230024002500266A
:1001D000103A28BF78C1FBD8520728BF30C148BFAA
:1001E0000B60704778290CF09B81002070471FB589
:1001F0000CF0D7F91FBD10B510BD0CF079FA1146FF
:10020000FFF7F5FF01F0C7F80CF097FA03B4FFF71A
:10021000F2FF03BC04F0A8F80B49D1F800C04A680B
:100220005CF8043B1068184442F8040B8C4528BF66
:10023000A1F1DC0C8A4228BFA1F1DC02C1F800C0A8
:100240004A6020F000407047542B00201CB5002469
:100250004FF005084FF478464FF0010A1027FE4D85
:100260004FF01F09DFF8F4B30020DBF804108847D3
:100270009BF8200000067DD5BBF81600A0F12802EF
:10028000322A45D8BBF80C00A0F11401322912D84B
:10029000F348417801296DD1834680780128FAD14D
:1002A0005A2346222821142003F041FC5A234622D7
:1002B0002821009448E0A0F15A01322912D8E848D8
:1002C00041780229E7D1834680780128E3D15A2377
:1002D0008C222821184603F02AFC5A238C2228213C
:1002E00000944BE0A038322844D8DD4841780329F7
:1002F000D1D18346807801283CD15A23D2222821AB
:10030000A02003F014FC5A23D222282100944CE0B0
:10031000A0F16402322A50D8BBF80C00A0F11401FD
:10032000322913D8CE484178042923D183468078D6
:1003300001281FD1962346226421142003F0F7FBE5
:10034000962346226421009414202FE0A0F15A0144
:10035000322915D8C248417805297DD18346807855
:10036000012879D196238C2264215A2003F0DFFBE7
:10037000962300E020E08C22642100945A2015E0AE
:10038000A038322868D8B6484178062964D1834617
:100390008078012860D19623D2226421A02003F026
:1003A000C6FB9623D22264210094A02003F029FBEF
:1003B0008BF804A08BF802404EE0A03832284BD8CE
:1003C000BBF80C00A0F11401322912D8A4484178DE
:1003D000072941D18346807801283DD1D223462286
:1003E000A021142003F0A3FBD2234622A0210094D5
:1003F000AAE7A0F15A01322912D899484178082970
:100400002AD183468078012826D1D2238C22A021AC
:100410005A2003F08CFBD2238C22A0210094ADE75C
:10042000A038322818D88E484178092914D183463B
:100430008078012810D1D223A0211A46084603F063
:1004400076FBD223A0211A460846009403F0D9FA7D
:100450008BF802408BF804A003F041FEDFF800B2F5
:1004600000288BF808007CD08BF806A0102879D1E2
:100470009BF80500012812D107208BF805004FF6E4
:10048000FF702880022241210A2003F06BFB2E809E
:100490000222B9210A2003F065FB8BF806409BF885
:1004A0000500022816D19BF8061001297DD10821EC
:1004B0008BF805104FF6FF70288002224121502052
:1004C00003F050FB2E800222B921502003F04AFB9A
:1004D0008BF806409BF80500032816D19BF8061000
:1004E000012962D109218BF805104FF6FF70288091
:1004F00002224121962003F035FB2E800222B921F1
:10050000962003F02FFB8BF806409BF8050004288B
:1005100015D19BF80610012947D18BF805A04FF69D
:10052000FF70288002227D210A2003F01BFB2E8011
:10053000022241210A2003F015FB8BF806409BF8AC
:100540000500052819D19BF8061001292DD102219B
:100550008BF805104FF6FF700A4628807D21502049
:1005600001E0F6E380E003F0FDFA2E800222412153
:10057000502003F0F7FA8BF806409BF80500062898
:1005800018D19BF80610012964D103218BF80510BE
:100590004FF6FF70288002227D21962003F0E2FAB8
:1005A000022241212E80962000E053E003F0DAFA87
:1005B0008BF806409BF80500072816D19BF806101B
:1005C000012947D104218BF805104FF6FF702880D0
:1005D0000222B9210A2003F0C5FA2E8002227D21D1
:1005E0000A2003F0BFFA8BF806409BF805000828A4
:1005F00015D19BF8061001292CD18BF805804FF6F8
:10060000FF7028800222B921502003F0ABFA2E801F
:1006100002227D21502003F0A5FA8BF806409BF8BA
:1006200005105846092915D18179012912D10621D1
:100630008BF805104FF6FF7028800222B921962012
:1006400003F090FA2E8002227D21962003F08AFA90
:100650008BF80640C82005E020000020240100207F
:100660000000002003F057FE9BF8080020287CD1F2
:100670009BF80500012816D19BF80610012975D1B9
:1006800004218BF805104FF6FF70288002224121CB
:100690000A2003F067FA2E8002227D210A2003F04F
:1006A00061FA8BF806409BF80500022815D19BF8EB
:1006B000061001295AD18BF805804FF6FF7028806B
:1006C00002224121502003F04DFA2E8002227D218A
:1006D000502003F047FA8BF806409BF805000328EA
:1006E00016D19BF80610012940D106218BF8051080
:1006F0004FF6FF70288002224121962003F032FA43
:100700002E8002227D21962003F02CFA8BF80640E1
:100710009BF80500042816D19BF80610012925D165
:1007200007218BF805104FF6FF70288002227D21EB
:100730000A2003F017FA2E800222B9210A2003F0C2
:1007400011FA8BF806409BF80500052819D19BF893
:10075000061001290AD108218BF805104FF6FF7009
:10076000288002227D21502001E078E074E003F02F
:10077000F9F92E800222B921502003F0F3F98BF809
:1007800006409BF80500062816D19BF806100129A3
:1007900062D109218BF805104FF6FF7028800222E4
:1007A0007D21962003F0DEF92E800222B9219620C9
:1007B00003F0D8F98BF806409BF80500072815D1FF
:1007C0009BF80610012947D18BF805A04FF6FF7062
:1007D00028800222B9210A2003F0C4F92E800222C7
:1007E00041210A2003F0BEF98BF806409BF8050072
:1007F000082816D19BF8061001292DD102218BF86B
:1008000005104FF6FF7028800A46B921502003F0EA
:10081000A9F92E8002224121502003F0A3F98BF880
:1008200006409BF805105846092915D18179012900
:1008300012D103218BF805104FF6FF702880022299
:10084000B921962003F08EF92E80022241219620B4
:1008500003F088F98BF80640C82003F05CFD9BF894
:10086000080040287ED19BF80500012816D19BF88E
:100870000610012977D103218BF805104FF6FF7080
:100880002880022241210A2003F06CF92E800222E6
:100890004121962003F066F98BF806409BF805008D
:1008A000022815D19BF8061001295CD18BF805A010
:1008B0004FF6FF70288002224121502003F052F9A8
:1008C0002E80022241210A2003F04CF98BF80640C9
:1008D0009BF80500032816D19BF80610012942D188
:1008E00002218BF805104FF6FF7028800A4641213F
:1008F000962003F037F92E8002224121502003F088
:1009000031F98BF806409BF80500042816D19BF8B6
:100910000610012927D106218BF805104FF6FF702C
:10092000288002227D210A2003F01CF92E80022259
:100930007D21962003F016F98BF806409BF8050000
:10094000052819D19BF8061001290CD104218BF838
:1009500005104FF6FF70288002227D21502003F001
:1009600001F901E076E072E02E8002227D210A206A
:1009700003F0F8F88BF806409BF80500062815D11F
:100980009BF80610012962D18BF805804FF6FF70A5
:10099000288002227D21962003F0E4F82E80022296
:1009A0007D21502003F0DEF88BF806409BF805000F
:1009B000072816D19BF80610012948D109218BF888
:1009C00005104FF6FF7028800222B9210A2003F09B
:1009D000C9F82E800222B921962003F0C3F88BF8C3
:1009E00006409BF80500082816D19BF8061001293F
:1009F0002DD107218BF805104FF6FF7028800222B9
:100A0000B921502003F0AEF82E800222B9210A202D
:100A100003F0A8F88BF806409BF805105846092902
:100A200015D18179012912D108218BF805104FF6D3
:100A3000FF7028800222B921962003F093F82E80BF
:100A40000222B921502003F08DF88BF80640C8200F
:100A500003F061FC9BF8080080287DD19BF805001D
:100A6000012816D19BF80610012976D102218BF8B6
:100A700005104FF6FF7028800A4641210A2003F036
:100A800071F82E8002224121502003F06BF88BF880
:100A900006409BF80500022816D19BF80610012994
:100AA0005BD103218BF805104FF6FF7028800222DE
:100AB0004121502003F056F82E8002224121962039
:100AC00003F050F88BF806409BF80500032815D179
:100AD0009BF80610012940D18BF805A04FF6FF7056
:100AE000288002224121962003F03CF82E80022229
:100AF00041210A2003F036F88BF806409BF80500E8
:100B0000042815D19BF80610012926D18BF8058001
:100B10004FF6FF70288002227D210A2003F022F880
:100B20002E8002227D21502003F01CF88BF8064015
:100B30009BF80500052819D19BF8061001290CD156
:100B400006218BF805104FF6FF70288002227D21C8
:100B5000502003F007F801E077E073E02E800222D6
:100B60007D21962002F0FEFF8BF806409BF80500E1
:100B7000062816D19BF80610012963D104218BF8B1
:100B800005104FF6FF70288002227D21962002F08A
:100B9000E9FF2E8002227D210A2002F0E3FF8BF87C
:100BA00006409BF80500072816D19BF8061001297E
:100BB00048D108218BF805104FF6FF7028800222DB
:100BC000B9210A2002F0CEFF2E800222B921502046
:100BD00002F0C8FF8BF806409BF80500082816D1E4
:100BE0009BF8061001292DD109218BF805104FF62D
:100BF000FF7028800222B921502002F0B3FF2E801E
:100C00000222B921962002F0ADFF8BF806409BF836
:100C100005105846092915D18179012912D10721DA
:100C20008BF805104FF6FF7028800222B92196201C
:100C300002F098FF2E800222B9210A2002F092FFD2
:100C40008BF80640C82003F066FB9BF808000128DB
:100C50007ED19BF8050001281BD18BF805804FF64B
:100C6000FF702880022241210A2002F07BFF2E80A3
:100C700002227D21502002F075FF8BF80340A5F879
:100C80000090CDE900742246022305212D2003F0B7
:100C90005EF89BF8050002281BD18BF805804FF603
:100CA000FF70288002224121502002F05BFF2E803D
:100CB00002227D21502002F055FF8BF80340A5F859
:100CC0000090CDE900742246022305212D2003F077
:100CD0003EF89BF8050003281BD18BF805804FF6E2
:100CE000FF70288002224121962002F03BFF2E80D7
:100CF00002227D21502002F035FF8BF80340A5F839
:100D00000090CDE900742246022305212D2003F036
:100D10001EF89BF8050004281ED18BF805804FF6BD
:100D2000FF70288002227D210A2002F01BFF2E8006
:100D300002227D21502002F015FF8BF80340A5F818
:100D40000090CDE900740223052122462D2001E008
:100D500092E09EE002F0FBFF9BF8050005280BD116
:100D60008BF80340A5F80090CDE9007422460223D9
:100D700005212D2002F0EBFF9BF8050006281BD172
:100D80008BF805804FF6FF70288002227D21962087
:100D900002F0E8FE2E8002227D21502002F0E2FEC9
:100DA0008BF80340A5F80090CDE900742246022399
:100DB00005212D2002F0CBFF9BF8050007281BD151
:100DC0008BF805804FF6FF7028800222B9210A2097
:100DD00002F0C8FE2E8002227D21502002F0C2FEC9
:100DE0008BF80340A5F80090CDE900742246022359
:100DF00005212D2002F0ABFF9BF8050008281BD130
:100E00008BF805804FF6FF7028800222B921502010
:100E100002F0A8FE2E8002227D21502002F0A2FEC8
:100E20008BF80340A5F80090CDE900742246022318
:100E300005212D2002F08BFF9BF8051009291BD1FD
:100E40008BF805804FF6FF7028800222B92196208A
:100E500002F088FE2E8002227D21502002F082FEC8
:100E60008BF80340A5F80090CDE9007422460223D8
:100E700005212D2002F06BFF9BF80810584602292F
:100E800007D141794278914203D19BF802000128B1
:100E900004D09BF80400012811D021E05A234622F7
:100EA0002821142002F043FE5A2346222821142030
:100EB000009402F0A6FD8BF804A08BF802408BF89A
:100EC00004409BF803100223491CCAB28BF803208C
:100ED000A5F80090CDE9007405212D2002F037FF20
:100EE000002003F04FF98BF80900022824D12C8050
:100EF000FBA0CDE900701023C8224FF487711E209B
:100F000002F074FF04F0B1F9352004F0BEFBFA489A
:100F100004F0E5F99BF80310F74804F07EFA04F0BA
:100F2000B0F92C80F5A0CDE900701023C8224FF451
:100F300087711E2002F05AFF9BF80900012825D175
:100F40002C80F4A0CDE900701023C8224FF48771E3
:100F50001E2002F04BFFE84801788BF807102C8028
:100F6000F2A0CDE900701023C8224FF487711E2033
:100F700002F03CFFA5F80090CDE9007402239BF835
:100F800007204FF48771B42002F0E1FE9BF80900BE
:100F900003280CD19BF807208BF80320A5F80090BC
:100FA000CDE90074022305212D2002F0D0FE9BF82C
:100FB000090004287FF456A94FF6FF70009040F214
:100FC0003F13EF224FF48771002002F01AFDFFF764
:100FD00049B90EB50126DB4C4FF0090B4BF64047E3
:100FE00000254FF008090DF1080840F2E73A207893
:100FF0000BF0C2FAFFF710F990FBFBF20BFB1200AB
:10100000401CD14960701F2008801020CDE90005E8
:101010000223E27805212D2002F099FE60780A284B
:101020001FD2DFE800F01E0510303B46515C6874AB
:101030005A2346222821142002F079FD5A23462201
:101040002821009755E05A238C222821184602F0C7
:101050006EFD5A238C222821009756E002F0D1FC25
:10106000A6700022CDE9009853461146104609F0BB
:1010700036FD60780A286FD2DFE800F06E556077A1
:10108000828D98A3AFBB5A23D2222821A02002F040
:101090004EFD5A23D2222821009742E09623462271
:1010A0006421142002F043FD962346226421009718
:1010B0001FE096238C2264215A2002F038FD9623EB
:1010C0008C226421009720E09623D2226421A02064
:1010D00002F02DFD9623D2226421009721E0D22335
:1010E0004622A021142002F022FDD2234622A02174
:1010F00000971420B2E7D2238C22A0215A2002F0BC
:1011000016FDD2238C22A02100975A20A6E7D223D5
:10111000A0211A46084602F00AFDD2231A46A02151
:101120000097A0209AE75A2346222821142002F093
:10113000FEFC5A234622282100954CE05A238C229B
:101140002821184602F0F3FC5A238C22282100950E
:101150004DE002F056FCA5700022CDE90098534600
:101160001146104609F0BBFC41E75A23D222282140
:10117000A02002F0DCFC5A23D2222821009542E074
:10118000962346226421142002F0D1FC96234622A5
:10119000642100951FE096238C2264215A2002F0DE
:1011A000C6FC96238C226421009520E09623D2224F
:1011B0006421A02002F0BBFC9623D222642100957A
:1011C00021E0D2234622A021142002F0B0FCD22339
:1011D0004622A02100951420BBE7D2238C22A02117
:1011E0005A2002F0A4FCD2238C22A02100955A2080
:1011F000AFE7D223A0211A46084602F098FCD2237A
:101200001A46A0210095A020A3E74E490878401C6B
:10121000C0B20870FE2801D10020087070472DE987
:10122000F0438BB004F089FA09A808F016F90121FF
:1012300009AA084605F0DBFC09AE0024AFF2350030
:101240000221CDE90010CDE902460B4622463FA11E
:10125000404809F088FD04F045FB3F4D2978491CC2
:10126000297004F043FB0327CDE9064704204FF023
:101270000C093A4A089605948DE805024FF080085B
:101280000023AFF2B1223548CDE9038434A1C4383C
:1012900008F079FBCDE90647344A08960594052005
:1012A0008DE805023148CDE903840023304A31A19D
:1012B000C43808F068FB09A9264809F0BCFE04F010
:1012C00011FB2978491E11F0FF0129705AD12C49D0
:1012D000098821B104F00AFB05F0FEFF54E051E05B
:1012E000537461727420577269746520464C41537F
:1012F000482E2E2E2E00000000000708464C4153B9
:10130000482057726974652046696E697368656420
:10131000210000005374617274205265616420469C
:101320004C4153482E2E2E2E20000000546865207C
:1013300044617461205265616465642049733A2098
:10134000200000000000002020000020746D723199
:1013500000000000A4090020BC000020E0040020E0
:101360004D4F555345205461736B0000A407002076
:101370004D020008544F554348205461736B0000E0
:101380008000002004F0B2FA09A9002008F0DCFB7C
:101390000BB0BDE8F08330B58BB002F077FF4FF4AF
:1013A000A06003F091F84FF4E13002F0E7FF00F0A5
:1013B00007F900F01FFC02F08EFD02F0C9FE02F0FA
:1013C00053FE1E480068804709A805F0A6FA04F0FD
:1013D00089FA1B4C2178491C217004F087FA0020FF
:1013E00006AB09AA0321059083E8070080220C239D
:1013F000CDE90232134D04900346AFF2DD12CDE980
:10140000001511A1A5F1C40008F0BDFA04F06AFAB4
:101410002178491E11F0FF01217007D10D4909887B
:1014200021B104F063FA05F057FF01E004F05EFA21
:1014300009A805F098FC0BB0002030BD2401002065
:10144000BC0000201C02002073746172742074615F
:10145000736B0000800000207047FEE7FEE7FEE7A8
:10146000FEE77047704700000CB500224C48009220
:101470000192016841F4803101604FF4A06301687A
:1014800001F4003101910099491C0091019911B9B1
:1014900000999942F3D10168890333D50121019163
:1014A00040490A6842F010020A600A6822F003020A
:1014B0000A600A6842F002020A60416841604168BD
:1014C0004160416841F480614160416821F47C11D0
:1014D0004160416841F4E8114160016841F0807168
:1014E000016001688901FCD5416821F00301416078
:1014F000416841F0020141604168C1F38101022964
:10150000FAD10CBD01920CBD254810B5016841F01F
:10151000010101604168244A114041600168234A89
:1015200011400160016821F480210160416821F4CB
:10153000FE0141604FF41F018160FFF795FF1C49D8
:101540004FF00060086010BD154A10B55068194B87
:1015500010F00C01184803D0042901D0082901D04B
:10156000036012E05168536801F470114FF00204F7
:1015700013F4803F04EB914102D053689B0301D5E3
:101580000E4B00E00B4B5943016051680A4AC1F30E
:101590000311121D515C0268CA40026010BD0000B8
:1015A00000100240002002400000FFF8FFFFF6FE9E
:1015B00008ED00E000127A000C00002000093D0058
:1015C00038B50121482003F0AAFB2024ADF80040E3
:1015D00010208DF8030003200B4D8DF802006946A2
:1015E000284603F020F82021284603F086F8ADF8BD
:1015F0000040064C6946204603F015F8202120469D
:1016000003F07BF838BD0000000C014000180140D9
:10161000FE4908807047FD49891C08807047FB48D7
:1016200008B5801C0088ADF80000BDF8000008BDBA
:10163000F64A1080901C01807047F44910B508806C
:10164000052002F049FEBDE81040E8E7F048EF4908
:10165000008908807047ED49891C08807047C0F3F5
:101660004511C20AC00200EB4110104480B270471D
:10167000401EC0B2FCD270472DE9F043DFF89093D2
:10168000E24F4A46B9F804C09389050A0C0ABE1C09
:101690005289ACF5C858B8F163080ED0ACF5A04833
:1016A000B8F5A2683A80358033D0C0B230803B8034
:1016B0003480C8B23080BDE8F083DFF854C399F8B5
:1016C0000680BCF800C0B8F1000F16D03A80358013
:1016D000C0B23080ACF1010C4FEA1C2030800CF01D
:1016E000FF0030803B803480C8B23080B9F80200FF
:1016F000401E010A3180C0B2DCE7ACEB0000401EA6
:1017000080B23A80002232803280020A3280C0B237
:10171000E7E7521C3A80C0B230803B8034805B1CCB
:101720003B80C6E710B5BA4C2288824202D9628853
:101730008A4201D8002010BDFFF79EFFA088B34960
:10174000A0F5AA42103A1AD02E200880FFF767FFB2
:10175000A188A1F5C852633AEDD0FFF760FF0146BA
:10176000FFF75DFFCAB24FF6FF7303EA02226FF381
:101770000A01920A41EA421141EAD02010BD4FF419
:101780003850E2E7A248A1498088A0F5AA42103A61
:1017900002D02920088070474FF42450FAE79C4873
:1017A0009A498088A0F5AA42103A02D028200880E1
:1017B00070474FF42050FAE770B5954C002321464E
:1017C000A279898841F66316012A01D01AB11BE07B
:1017D000B14202D118E0B14216D1082814D2DFE894
:1017E00000F00406080A0C0E101206200CE0072078
:1017F0000AE0042008E0052006E0012004E00020C3
:1018000002E0032000E00220082812D2DFE800F006
:10181000110406080A0C0E1080230AE0402308E099
:10182000C02306E0202304E0602302E0A02300E0C0
:10183000E02345F21055A94202D14FF4585000E080
:101840003620A1F51342413A03D0A1F5EE42893A80
:1018500001D143F008031946FFF7EAFEA288B2421D
:101860000AD098062088618802D5884202D303E016
:10187000884201D9218060806449881CAA4262891B
:101880000A8021D100230380531C0B800023038096
:10189000931C0B8023885B1E1D0A0580D21C0A80C6
:1018A000DAB20280A2890A8000230380531C0B80D5
:1018B00000230380931C0B8063885B1E1C0A04803A
:1018C000D21C0A80D9B212E0002202800280228853
:1018D000521E130A0380D2B20280A2890A8000211C
:1018E000018001806188491E0A0A0280C9B2018014
:1018F00070BD00B5FFF7C0FEFFF7A8FE454843499D
:10190000891C0088088000BD2DE9F047DFF80091B0
:1019100092464A46B9F80460DFF8F0C093890C0A91
:10192000050A5289A6F5A0480CF10207B8F5A2688D
:101930000CD0A6F5C858B8F1630816D0ACF8002052
:101940003D80C0B23880ACF8003024E0ACF8002014
:101950003D80521CACF80020C0B23880ACF800309A
:101960003C805B1CACF8003016E099F8066026B9A4
:10197000B9F80050281A401E80B2ACF80020020AC4
:101980003A80C5B23D803A80C0B23880ACF80030B1
:101990003C80C8B238803C80C8B23880B9F80800B2
:1019A000ACF80000A7F800A0BDE8F087174A10B512
:1019B000BE211180941C052121800AF070FF4FF098
:1019C0006632154B0AF0BAFF0AF03CFF2080012076
:1019D0002080FF20208000202080208010BD2DE965
:1019E000F04F0B4B2C272B2598714FF4305A4FF4A6
:1019F000285B4FF4487441F6631E2A264FF0F00826
:101A000045F210594FF4A07C194607E0FE07006C20
:101A1000D8090020200000206666044089884FF421
:101A2000F072C0B1A3F800C0A3F80280494532D1DA
:101A3000A3F808A0A3F80AB0280298811C805A8055
:101A4000A1F5A640103802D11A80A3F802C0BDE863
:101A5000F04F0020B0E6A3F80080A3F802C049458B
:101A600007D1A3F808A0A3F80AB04FF42C5098812E
:101A700004E071451F8104D15D819E811A805C80E4
:101A800001E05E819D81A1F5A6401038DFD1A3F869
:101A900000C05A80DBE71F815E8171459D81CDD0FA
:101AA000CEE72DE9FF4F83185B1E1FFA83FA039BD5
:101AB0000B44A3F101081FFA88F9FE4EDFF8F8E3A2
:101AC0003346B7889C890D0A5B89A7F5C85C0EF17F
:101AD000020BBCF1630C29D196F806C0BCF1010FD2
:101AE00024D036881FFA88F7B61A301A86B2AEF8B4
:101AF0000030330A5846ABF80030F3B2ABF8003090
:101B00003244521E130AABF80030D2B2ABF80020B8
:101B1000AEF80040ABF80050C9B2ABF80010390A7B
:101B2000ABF80010F9B20180BDE8FF8F0244521EED
:101B3000C2F30728039AA7F5A04C0A44521E060ACE
:101B4000C2F30722BCF5A26C7746AEF8003017D07E
:101B5000ABF80060C0B2ABF80000ABF800800AF050
:101B6000FF00ABF800003C80ABF80050C8B2ABF807
:101B70000000ABF8002009F0FF00ABF80000D3E74D
:101B8000DC46ABF800605E1C3E80C0B2ABF80000E3
:101B9000981C3880ABF80080DB1C3B800AF0FF000B
:101BA000ABF800003C80ABF80050601C3880C8B235
:101BB000ACF80000A01C3880ACF80020E41C3C808D
:101BC00009F0FF00ACF80000AEE770B5B949064671
:101BD000002408884D88214645432046FFF74CFDE8
:101BE000FFF734FDB448801C01E00680641CAC4261
:101BF000FBD370BD2DE9F04F01219FB0080203F027
:101C000085F801214FF4B47003F089F84FF0010812
:101C1000ADF83C8010268DF83F60032447468DF8D0
:101C20003E400FA9A54802F0FEFC4CF23370ADF81F
:101C30003C0018258DF83F508DF83E400FA9A04874
:101C400002F0F1FC4FF68070ADF83C008DF83F508B
:101C50008DF83E400FA99B4802F0E5FC41F20100DF
:101C6000ADF83C008DF83F508DF83E400FA99648E6
:101C700002F0D9FC00200F21CDE918011A901B9029
:101C80001C901D901090CDE91104CDE91607149019
:101C900006211590CDE90010CDE9020613900490BD
:101CA0003102CDE908010690059007908900CDE941
:101CB0000A010C9017A80D9010A80E90684603F02A
:101CC000B1F80121062003F0E2F9322002F023FBF3
:101CD000794CD3202080FFF7A2FC764DA880FFF737
:101CE0009EFCA880FFF79BFC4FF6FF7909EA0020D5
:101CF000A880FFF794FCA98849F2413A0843A880DC
:101D000047F2897645F2103B45F21057504560D0B6
:101D100004202080FFF783FCA880FFF780FCA880C8
:101D2000FFF77DFC09EA00204946A880FFF777FC11
:101D3000AA881043A0F50542A880523A44D0B04288
:101D400047D0D4202080FFF76AFCA880FFF767FC0B
:101D5000A880FFF764FC01EA0020A880FFF75FFC81
:101D6000AA881043A880584533D04FF45A402080A9
:101D7000FFF755FCA8804FF45B402080FFF74FFC35
:101D800001EA0020A8804FF45C402080FFF747FC68
:101D9000AA881043A880B0F5004F7DD0B84218D073
:101DA000A1202080FFF73BFCA880FFF738FC01EA68
:101DB0000020A880FFF733FCA9880843A0F5AE41B6
:101DC000A880613902D004E0AE8002E041F66310E1
:101DD000A880A9883DA00AF063FBA888364DAD1CF9
:101DE00050457BD1CF20208000202880C120288032
:101DF00030202880ED202080642028800320288047
:101E00001220288081202880E820208085202880BA
:101E1000102028807A202880CB202080392028801C
:101E20002C20288000202880342028800220288030
:101E3000F720208020202880EA2020800020288091
:101E40002880C02020801B202880C12020800120E5
:101E50002880C5202080302028802880C72020802E
:101E6000B720288036202080482028803A202080F3
:101E700055202880B1202080002028801A2028802A
:101E8000B62020800A202880A2202880F2202080EE
:101E900000202880262000E06BE0208001202880A0
:101EA000E02020800F2028802A20288028202880D9
:101EB000082014E0D8090020FE07006C000C014047
:101EC000001401400018014000200140204C434410
:101ED0002049443A25780D0A000000004BE0288094
:101EE0000E2028800820288054202880A9202880BF
:101EF000432028800A2028800F2028800020288066
:101F0000288028802880E12020800020288015203B
:101F1000288017202880072028801120288006206C
:101F200028802B202880562028803C2028800520CF
:101F30002880102028800F2028803F20288028809B
:101F40000F2028802B20208000202880288001203E
:101F500028803F2028802A20208000202880288078
:101F60002880EF20288011202080782002F0D3F9EB
:101F70008BE0AF802DE7B0427ED111202080782009
:101F800002F0C9F936202080002028803A202080E5
:101F900005202880B22020800C2028802880002066
:101FA0002880332028802880B72020803520288072
:101FB000BB20208032202880C02020800C20288058
:101FC000C220208001202880C3202080102028806B
:101FD000C420208020202880C62020800F20288038
:101FE000D0202080A4202880A1202880E0202080EC
:101FF000D0202880002028800220288007202880E8
:102000000A20288028202880322028804420288008
:1020100042202880062028800E2028801220288038
:102020001420288017202880E1202080D0202880BC
:102030000020288002202880072028800A2028806D
:10204000282028803120288054202880472028807C
:102050000E2028801C202880172028801B20288004
:102060001E2028802A202080002028802880288088
:10207000EF2028802B2000E00AE02080002028802C
:102080002880012028803F202880292001F02DBCB5
:1020900058457DD1ED20208001202880FE20288019
:1020A000EE202080DE20288021202880F120208042
:1020B00001202880DF20208010202880C42020805C
:1020C0008F202880C620208000202880E2202880C1
:1020D00028802880BF202080AA202880B02020804F
:1020E0000D202880002028800D20288000202880B6
:1020F0001120288000202880192028800020288096
:1021000021202880002028802D2028800020288061
:102110003D202880002028805D2028800020288005
:102120005D20288000202880B12020808020288009
:10213000002028808B20288000202880962028805E
:1021400000202880B22020800020288028800220C3
:102150002880002028800320288000202880B320A9
:1021600020800020288028802880288028802880BF
:10217000288028802880288028802880288028801F
:10218000288028802880288028802880288000E0D7
:10219000FEE3288028802880B42020808B2028809F
:1021A000002028809620288000202880A1202880D8
:1021B00000202880B5202080022028800020288050
:1021C00003202880002028800420288000202880E8
:1021D000B6202080002028802880B7202080002082
:1021E000288028803F202880002028805E202880AA
:1021F0000020288064202880002028808C202880CF
:1022000000202880AC20288000202880DC20288026
:10221000002028807020288000202880902028809E
:1022200000202880EB20288000202880DC202880C7
:1022300000202880B8202080002028802880288046
:1022400028802880288028802880BA202080242088
:1022500028800020288028802880C12020802020FD
:102260002880002028805420288000202880FF20FB
:10227000288000202880C22020800A20288000207A
:1022800028800420288000202880C32020803C2033
:102290002880002028803A202880002028803920AB
:1022A00028800020288037202880002028803C209B
:1022B0002880002028803620288000202880322096
:1022C0002880002028802F202880002028802C2093
:1022D000288000202880292028800020288026208F
:1022E0002880002028802420288000202880242086
:1022F00028800020288023202880002028803C205F
:102300002880002028803620288000202880322045
:102310002880002028802F202880002028802C2042
:10232000288000202880292028800020288026203E
:102330002880002028802420288000202880242035
:102340002880002028802320288000202880C42086
:1023500020806220288000202880052028800020FE
:1023600028808420288000202880F02028800020D9
:1023700028801820288000202880A4202880002081
:1023800028801820288000202880502028800020C5
:1023900028800C20288000202880172028800020FA
:1023A00028809520288000202880F3202880002085
:1023B0002880E620288000202880C5202080322028
:1023C0002880002028804420288000202880652044
:1023D00028800020288076202880002028808820DF
:1023E000288000202880C6202080202028800020EF
:1023F00028801720288000202880012028800020A5
:102400002880C720208000202880288028802880DD
:10241000C820208000202880288028802880C9208B
:1024200020800020288028802880288028802880FC
:10243000288028802880288028802880288028805C
:1024400028802880E02020801620288000202880F6
:102450001C2028800020288021202880002028801F
:1024600036202880002028804620288000202880D0
:102470005220288000202880642028800020288086
:102480007A202880002028808B2028800020288027
:102490009920288000202880A820288000202880DB
:1024A000B920288000202880C4202880002028808F
:1024B000CA20288000202880D22028800020288060
:1024C000D920288000202880E02028800020288033
:1024D000F320288000202880E120208016202880FA
:1024E000002028801C20288000202880222028808E
:1024F0000020288036202880002028804520288041
:1025000000202880522028800020288064202880F5
:10251000002028807A202880002028808B20288096
:10252000002028809920288000202880A82028804A
:1025300000202880B920288000202880C4202880FE
:1025400000202880CA20288000202880D2202880CF
:1025500000202880D820288000202880E0202880A3
:1025600000202880F320288000202880E22020807E
:1025700005202880002028800B202880002028802B
:102580001B202880002028803420288000202880DC
:1025900044202880002028804F2028800020288088
:1025A0006120288000202880792028800020288031
:1025B00088202880002028809720288000202880DC
:1025C000A620288000202880B7202880002028808E
:1025D000C220288000202880C72028800020288052
:1025E000D120288000202880D62028800020288024
:1025F000DD20288000202880F320288000202880EB
:10260000E320208005202880002028800A202880C0
:10261000002028801C20288000202880332028804B
:1026200000202880442028800020288050202880F6
:1026300000202880622028800020288078202880A0
:10264000002028808820288000202880972028804B
:1026500000202880A620288000202880B7202880FD
:1026600000202880C220288000202880C7202880C1
:1026700000202880D120288000202880D520288094
:1026800000202880DD20288000202880F32028805A
:1026900000202880E420208001202880002028803D
:1026A0000120288000202880022028800020288007
:1026B0002A202880002028803C2028800020288094
:1026C0004B202880002028805D2028800020288042
:1026D00074202880002028808420288000202880E2
:1026E0009320288000202880A22028800020288095
:1026F000B320288000202880BE2028800020288049
:10270000C420288000202880CD2028800020288018
:10271000D320288000202880DD20288000202880E9
:10272000F320288000202880E520208000202880B9
:1027300028802880288002202880002028802920C6
:102740002880002028803C202880002028804B20E2
:102750002880002028805D20288000202880742088
:102760002880002028808420288000202880932032
:10277000288000202880A220288000202880B320E4
:10278000288000202880BE20288000202880C420A7
:10279000288000202880CD20288000202880D32079
:1027A000288000202880DC20288000202880F3203A
:1027B000288000202880E62020801120288000200A
:1027C000288034202880002028805620288000205F
:1027D00028807620288000202880772028800020EC
:1027E00028806620288000202880882028800020DB
:1027F00028809920288000202880BB202880002065
:1028000028809920288000202880662028800020A9
:1028100028805520288000202880552028800020EE
:102820002880452028800020288043202880002000
:1028300028804420288000202880E7202080322023
:10284000288000202880552028800020288076209D
:10285000288000202880662028800020288067208B
:10286000288000202880672028800020288087205A
:102870002880002028809920288000202880BB20E4
:102880002880002028809920288000202880772018
:10289000288000202880442028800020288056207E
:1028A00028800020288023202880002028803320B2
:1028B0002880002028804520288000202880E820CB
:1028C00020800020288028809920288000202880CF
:1028D00087202880002028808820288000202880C9
:1028E00077202880002028806620288000202880EB
:1028F0008820288000202880AA2028800020288086
:10290000BB20288000202880992028800020288053
:1029100066202880002028805520288000202880DC
:1029200055202880002028804420288000202880EE
:1029300044202880002028805520288000202880DE
:10294000E9202080AA202880002028802880288054
:102950002080AA202880CF20208000202880288066
:102960002880288028802880288028802880288027
:102970002880288028802880288028802880F020AF
:10298000208000202880502028800020288000E01F
:102990002CE028802880F320208000202880F92047
:1029A00020800620288010202880292028800020D0
:1029B00028803A2020805520288011202080642003
:1029C00001F0A9FC292020803520208000202880CB
:1029D00051202080FF202880532020802C20288018
:1029E00055202080822028802C20FCE3B8427DD115
:1029F0004FF4704355211846FEF71AFE4FF20105B9
:102A0000AA212846FEF714FE6E1C52213046FEF71E
:102A10000FFEAF1C08213846FEF70AFE4FF2040CE9
:102A200001216046FEF704FE0D214FF43040FEF711
:102A3000FFFD0D214BF20100FEF7FAFD0D214BF2D7
:102A40000200FEF7F5FD4FF4364A34215046FEF7FA
:102A5000EFFD34214BF20160FEF7EAFD34214BF229
:102A60000260FEF7E5FD4FF4314B0D215846FEF7AD
:102A7000DFFD0D214BF20110FEF7DAFD0D214BF2C7
:102A80000210FEF7D5FD34214FF43740FEF7D0FD9C
:102A900034214BF20170FEF7CBFD34214BF2027072
:102AA000FEF7C6FD00214FF43240FEF7C1FD0021C4
:102AB0004BF20120FEF7BCFD00214BF20220FEF795
:102AC000B7FD24214FF43840FEF7B2FD24214BF628
:102AD0000100FEF7ADFD24214BF60200FEF7A8FD34
:102AE00001214FF43F40FEF7A3FD00E0FEE30F217C
:102AF0004FF43340FEF79CFD0F214BF20130FEF7FF
:102B000097FD0F214BF20230FEF792FD34214FF476
:102B10003940FEF78DFD34214BF60110FEF788FD9C
:102B200034214BF60210FEF783FD08214FF43540A7
:102B3000FEF77EFD08214BF20150FEF779FD0821DA
:102B40004BF20250FEF774FD03214FF44240FEF7B2
:102B50006FFD24214FF43A40FEF76AFD24214BF625
:102B60000120FEF765FD24214BF60220FEF760FDF3
:102B700000214FF43C40FEF75BFD78214BF601400D
:102B8000FEF756FD00214BF60240FEF751FD0021F5
:102B90004FF43D40FEF74CFD78214BF60150FEF717
:102BA00047FD00214BF60250FEF742FD00214FF495
:102BB0003E40FEF73DFD64214BF60160FEF738FD17
:102BC00000214FF45140FEF733FD33214DF2011047
:102BD000FEF72EFD00214DF20210FEF729FD3421F3
:102BE0004DF20310FEF724FD00214DF20410FEF714
:102BF0001FFD3A214DF20510FEF71AFD00214DF29E
:102C00000610FEF715FD4A214DF20710FEF710FDE4
:102C100000214DF20810FEF70BFD5C214DF209106A
:102C2000FEF706FD00214DF20A10FEF701FD81219D
:102C30004DF20B10FEF7FCFC00214DF20C10FEF7DC
:102C4000F7FCA6214DF20D10FEF7F2FC00214DF22B
:102C50000E10FEF7EDFCE5214DF20F10FEF7E8FC3B
:102C600001214DF21010FEF7E3FC13214DF211107B
:102C7000FEF7DEFC01214DF21210FEF7D9FC5421C3
:102C80004DF21310FEF7D4FC01214DF21410FEF7A3
:102C9000CFFC82214DF21510FEF7CAFC01214DF246
:102CA0001610FEF7C5FCCA214DF21710FEF7C0FC46
:102CB00002214DF21810FEF7BBFC00214DF2191055
:102CC000FEF7B6FC02214DF21A10FEF7B1FC01210D
:102CD0004DF21B10FEF7ACFC02214DF21C10FEF76A
:102CE000A7FC34214DF21D10FEF7A2FC02214DF28B
:102CF0001E10FEF79DFC67214DF21F10FEF798FC99
:102D000002214DF22010FEF793FC84214DF2211098
:102D1000FEF78EFC02214DF22210FEF789FCA42161
:102D20004DF22310FEF784FC02214DF22410FEF731
:102D30007FFCB7214DF22510FEF77AFC02214DF2FF
:102D40002610FEF775FCCF214DF22710FEF770FC20
:102D500002214DF22810FEF76BFCDE214DF2291006
:102D6000FEF766FC02214DF22A10FEF761FCF2210B
:102D70004DF22B10FEF75CFC02214DF22C10FEF7F9
:102D800057FCFE214DF22D10FEF752FC03214DF2AF
:102D90002E10FEF74DFC10214DF22F10FEF748FCCF
:102DA00003214DF23010FEF743FC33214DF2311078
:102DB000FEF73EFC03214DF23210FEF739FC6D2187
:102DC0004DF23310FEF734FC00214FF45240FEF771
:102DD0002FFC33214DF20120FEF72AFC00214DF299
:102DE0000220FEF725FC34214DF20320FEF720FCE3
:102DF00000214DF20420FEF71BFC3A214DF2052084
:102E0000FEF716FC00214DF20620FEF711FC4A21C8
:102E10004DF20720FEF70CFC00214DF20820FEF7D2
:102E200007FC5C214DF20920FEF702FC00214DF267
:102E30000A20FEF7FDFB81214DF20B20FEF7F8FB87
:102E400000214DF20C20FEF7F3FBA6214DF20D20E0
:102E5000FEF7EEFB00214DF20E20FEF7E9FBE52127
:102E60004DF20F20FEF7E4FB01214DF21020FEF79A
:102E7000DFFB13214DF21120FEF7DAFB01214DF2A9
:102E80001220FEF7D5FB54214DF21320FEF7D0FBA4
:102E900001214DF21420FEF7CBFB82214DF21520CB
:102EA000FEF7C6FB01214DF21620FEF7C1FBCA2139
:102EB0004DF21720FEF7BCFB02214DF21820FEF761
:102EC000B7FB00214DF21920FEF7B2FB02214DF2B3
:102ED0001A20FEF7ADFB01214DF21B20FEF7A8FBE7
:102EE00002214DF21C20FEF7A3FB34214DF21D20E0
:102EF000FEF79EFB02214DF21E20FEF799FB672193
:102F00004DF21F20FEF794FB02214DF22020FEF728
:102F10008FFB84214DF22120FEF78AFB02214DF226
:102F20002220FEF785FBA4214DF22320FEF780FB33
:102F300002214DF22420FEF77BFBB7214DF2252024
:102F4000FEF776FB02214DF22620FEF771FBCF2122
:102F50004DF22720FEF76CFB02214DF22820FEF7F0
:102F600067FBDE214DF22920FEF762FB02214DF2C4
:102F70002A20FEF75DFBF2214DF22B20FEF758FBD5
:102F800002214DF22C20FEF753FBFE214DF22D20A5
:102F9000FEF74EFB03214DF22E20FEF749FB1021D8
:102FA0004DF22F20FEF744FB03214DF23020FEF7B7
:102FB0003FFB33214DF23120FEF73AFB03214DF266
:102FC0003220FEF735FB6D214DF23320FEF730FB4A
:102FD00000214FF45340FEF72BFB33214DF201301B
:102FE000FEF726FB00214DF20230FEF721FB3421D3
:102FF0004DF20330FEF71CFB00214DF20430FEF7CA
:1030000017FB3A214DF20530FEF712FB00214DF27D
:103010000630FEF70DFB4A214DF20730FEF708FBA4
:1030200000214DF20830FEF703FB5C214DF2093020
:10303000FEF7FEFA00214DF20A30FEF7F9FA81217F
:103040004DF20B30FEF7F4FA00214DF20C30FEF792
:10305000EFFAA6214DF20D30FEF7EAFA00214DF20B
:103060000E30FEF7E5FAE5214DF20F30FEF7E0FAFB
:1030700001214DF21030FEF7DBFA13214DF2113031
:10308000FEF7D6FA01214DF21230FEF7D1FA5421A3
:103090004DF21330FEF7CCFA01214DF21430FEF759
:1030A000C7FA82214DF21530FEF7C2FA01214DF226
:1030B0001630FEF7BDFACA214DF21730FEF7B8FA06
:1030C00002214DF21830FEF7B3FA00214DF219300B
:1030D000FEF7AEFA02214DF21A30FEF7A9FA0121ED
:1030E0004DF21B30FEF7A4FA02214DF21C30FEF720
:1030F0009FFA34214DF21D30FEF79AFA02214DF26B
:103100001E30FEF795FA67214DF21F30FEF790FA58
:1031100002214DF22030FEF78BFA84214DF221304E
:10312000FEF786FA02214DF22230FEF781FAA42141
:103130004DF22330FEF77CFA02214DF22430FEF7E7
:1031400077FAB7214DF22530FEF772FA02214DF2DF
:103150002630FEF76DFACF214DF22730FEF768FAE0
:1031600002214DF22830FEF763FADE214DF22930BC
:10317000FEF75EFA02214DF22A30FEF759FAF221EB
:103180004DF22B30FEF754FA02214DF22C30FEF7AF
:103190004FFAFE214DF22D30FEF74AFA03214DF28F
:1031A0002E30FEF745FA10214DF22F30FEF740FA8F
:1031B00003214DF23030FEF73BFA33214DF231302E
:1031C000FEF736FA03214DF23230FEF731FA6D2167
:1031D0004DF23330FEF72CFA00214FF45440FEF745
:1031E00027FA332100E080E34DF20140FEF720FA98
:1031F00000214DF20240FEF71BFA34214DF203404C
:10320000FEF716FA00214DF20440FEF711FA3A21BA
:103210004DF20540FEF70CFA00214DF20640FEF794
:1032200007FA4A214DF20740FEF702FA00214DF25B
:103230000840FEF7FDF95C214DF20940FEF7F8F970
:1032400000214DF20A40FEF7F3F981214DF20B40C7
:10325000FEF7EEF900214DF20C40FEF7E9F9A62148
:103260004DF20D40FEF7E4F900214DF20E40FEF75D
:10327000DFF9E5214DF20F40FEF7DAF901214DF2B9
:103280001040FEF7D5F913214DF21140FEF7D0F9A9
:1032900001214DF21240FEF7CBF954214DF21340BB
:1032A000FEF7C6F901214DF21440FEF7C1F9822163
:1032B0004DF21540FEF7BCF901214DF21640FEF724
:1032C000B7F9CA214DF21740FEF7B2F902214DF2CB
:1032D0001840FEF7ADF900214DF21940FEF7A8F9AC
:1032E00002214DF21A40FEF7A3F900E0FFE20121AE
:1032F0004DF21B40FEF79CF902214DF21C40FEF7F7
:1033000097F934214DF21D40FEF792F902214DF25A
:103310001E40FEF78DF967214DF21F40FEF788F938
:1033200002214DF22040FEF783F984214DF2214025
:10333000FEF77EF902214DF22240FEF779F9A42131
:103340004DF22340FEF774F902214DF22440FEF7BE
:103350006FF9B7214DF22540FEF76AF902214DF2CF
:103360002640FEF765F9CF214DF22740FEF760F9C0
:1033700002214DF22840FEF75BF9DE214DF2294093
:10338000FEF756F902214DF22A40FEF751F9F221DB
:103390004DF22B40FEF74CF902214DF22C40FEF786
:1033A00047F9FE214DF22D40FEF742F903214DF27F
:1033B0002E40FEF73DF910214DF22F40FEF738F96F
:1033C00003214DF23040FEF733F933214DF2314005
:1033D000FEF72EF903214DF23240FEF729F96D2157
:1033E0004DF23340FEF724F900214FF45540FEF72B
:1033F0001FF933214DF20150FEF71AF900214DF269
:103400000250FEF715F934214DF20350FEF710F982
:1034100000214DF20450FEF70BF93A214DF2055010
:10342000FEF706F900214DF20650FEF701F94A2198
:103430004DF20750FEF7FCF800214DF20850FEF760
:10344000F7F85C214DF20950FEF7F2F800214DF239
:103450000A50FEF7EDF881214DF20B50FEF7E8F827
:1034600000214DF20C50FEF7E3F8A6214DF20D506D
:10347000FEF7DEF800214DF20E50FEF7D9F8E521F7
:103480004DF20F50FEF7D4F801214DF21050FEF727
:10349000CFF813214DF21150FEF7CAF801214DF279
:1034A0001250FEF7C5F854214DF21350FEF7C0F844
:1034B00001214DF21450FEF7BBF882214DF2155058
:1034C000FEF7B6F801214DF21650FEF7B1F8CA2109
:1034D0004DF21750FEF7ACF802214DF21850FEF7EE
:1034E000A7F800214DF21950FEF7A2F802214DF283
:1034F0001A50FEF79DF801214DF21B50FEF798F887
:1035000002214DF21C50FEF793F834214DF21D506C
:10351000FEF78EF802214DF21E50FEF789F8672162
:103520004DF21F50FEF784F802214DF22050FEF7B5
:103530007FF884214DF22150FEF77AF802214DF2F6
:103540002250FEF775F8A4214DF22350FEF770F8D3
:1035500002214DF22450FEF76BF8B7214DF22550B1
:10356000FEF766F802214DF22650FEF761F8CF21F2
:103570004DF22750FEF75CF802214DF22850FEF77D
:1035800057F8DE214DF22950FEF752F802214DF294
:103590002A50FEF74DF8F2214DF22B50FEF748F875
:1035A00002214DF22C50FEF743F8FE214DF22D5032
:1035B000FEF73EF803214DF22E50FEF739F81021A8
:1035C0004DF22F50FEF734F803214DF23050FEF744
:1035D0002FF833214DF23150FEF72AF803214DF236
:1035E0003250FEF725F86D214DF23350FEF720F8EA
:1035F00000214FF45640FEF71BF833214DF20160D5
:10360000FEF716F800214DF20260FEF711F83421A2
:103610004DF20360FEF70CF800214DF20460FEF756
:1036200007F83A214DF20560FEF702F800214DF24D
:103630000660FDF7FDFF4A214DF20760FDF7F8FF38
:1036400000214DF20860FDF7F3FF5C214DF20960A7
:10365000FDF7EEFF00214DF20A60FDF7E9FF812141
:103660004DF20B60FDF7E4FF00214DF20C60FDF719
:10367000DFFFA6214DF20D60FDF7DAFF00214DF2CC
:103680000E60FDF7D5FFE5214DF20F60FDF7D0FF8D
:1036900001214DF21060FDF7CBFF13214DF21160B7
:1036A000FDF7C6FF01214DF21260FDF7C1FF542165
:1036B0004DF21360FDF7BCFF01214DF21460FDF7E0
:1036C000B7FF82214DF21560FDF7B2FF01214DF2E7
:1036D0001660FDF7ADFFCA214DF21760FDF7A8FF98
:1036E00002214DF21860FDF7A3FF00214DF2196091
:1036F000FDF79EFF02214DF21A60FDF799FF0121AF
:103700004DF21B60FDF794FF02214DF21C60FDF7A6
:103710008FFF34214DF21D60FDF78AFF02214DF22B
:103720001E60FDF785FF67214DF21F60FDF780FFEA
:1037300002214DF22060FDF77BFF84214DF22160D4
:10374000FDF776FF02214DF22260FDF771FFA42103
:103750004DF22360FDF76CFF02214DF22460FDF76E
:1037600067FFB7214DF22560FDF762FF02214DF2A0
:103770002660FDF75DFFCF214DF22760FDF758FF72
:1037800002214DF22860FDF753FFDE214DF2296042
:10379000FDF74EFF02214DF22A60FDF749FFF221AD
:1037A0004DF22B60FDF744FF02214DF22C60FDF736
:1037B0003FFFFE214DF22D60FDF73AFF03214DF250
:1037C0002E60FDF735FF10214DF22F60FDF730FF21
:1037D00003214DF23060FDF72BFF33214DF23160B4
:1037E000FDF726FF03214DF23260FDF721FF6D2129
:1037F0004DF23360FDF71CFF55211846FDF718FF09
:10380000AA212846FDF714FF52213046FDF710FF8C
:1038100008213846FDF70CFF00216046FDF708FF40
:10382000CC215846FDF704FF00214BF20110FDF7B3
:10383000FFFE05215046FDF7FBFE70214FF4374097
:10384000FDF7F6FE70214BF20170FDF7F1FE01214C
:103850004FF43840FDF7ECFE03214BF60100FDF775
:10386000E7FE03214BF60200FDF7E2FE03214BF6D3
:103870000300FDF7DDFE02214FF43C40FDF7D8FECA
:1038800000214BF60140FDF7D3FE00214BF602402C
:10389000FDF7CEFED0214FF44940FDF7C9FE0221CD
:1038A0004CF60110FDF7C4FE50214CF60210FDF756
:1038B000BFFE50214CF60310FDF7BAFE50214CF626
:1038C0000410FDF7B5FE00214FF45450FDF7B0FE93
:1038D00055214FF46850FDF7ABFE4FF4885020801F
:1038E000782000F0F9FC4FF4245020807DE0A0F512
:1038F000C851633979D1E22020801D202880022020
:10390000288004202880642000F0E6FCE02020804D
:10391000012028800A2000F0FEFCE0202080032007
:1039200028800C2000F0F7FC012020800A2000F005
:10393000F2FCE62020802F202880FF20288028808D
:10394000B02020802020288000202880032028808C
:1039500040F21F3028800120288040F2DF102880AC
:1039600000202880B42020800420288040F21F40BE
:103970002880002028802E20288000202880288071
:1039800028802880B6202080022028804FF40370F1
:1039900028800020288017202880152028800020DB
:1039A00028802880F0202080032028802920208063
:1039B000D020208000202880BE2020800520288064
:1039C000FE20288001202880002028802880288050
:1039D000B82020800320288001202880BA20208061
:1039E000012028806420FDF7E1FF0020FDF7F7FFAC
:1039F000F749C1F880814846FEF7E7F81FB0BDE8F7
:103A0000F08F2DE9F0438146A2EB0900401C1F46D0
:103A10000C4685B2DFF8BC83079E0FE0214648467E
:103A2000FDF72AFEFDF712FE0020414602E00E805F
:103A3000401C80B2A842FAD3641CA4B2BC42EDD9A7
:103A4000BDE8F0832DE9F0478246A2EB0A00401C56
:103A50000E4685B2981B401C87B20024DFF8749391
:103A6000DDF8208014E0301981B25046FDF704FEE5
:103A7000FDF7ECFD0020494606E004FB050338F89D
:103A800013200A80401C80B2A842F6D3641CA4B262
:103A9000BC42E8D3BDE8F0872DE9FE4F0026A2EB3B
:103AA000000882465F1A701E35468946B8F1000F3D
:103AB00002DD4FF0010102E003D14FF0000101915E
:103AC00002E0C8F100080190002F02DD4FF0010074
:103AD00002E003D14FF00000009002E0C7F10007C0
:103AE00000904046B84501DD044600E03C46601CBD
:103AF0004FF0000B029015E01FFA89F11FFA8AF0CF
:103B0000FDF7F7FE46443D44A64202DD0199361B0F
:103B10008A44A54202DD00992D1B89440BF1010066
:103B20001FFA80FB02998B45E6DDBDE8FE8FF0B5FC
:103B30001C4615460E4607460B46FFF7ADFF3A46B4
:103B4000234631461046FFF7A7FF23462A4619466B
:103B50003846FFF7A1FF2A4623463146BDE8F0402C
:103B6000104699E72DE9FC4F8046002415460320B6
:103B70000F46A0EB450649E0781B81B208EB040A2A
:103B800001901FFA8AF0FDF7B4FE381B81B208EBF2
:103B9000050900901FFA89F0FDF7ABFE07EB040B57
:103BA0001FFA8BF11FFA89F0FDF7A3FE07EB050959
:103BB0001FFA89F11FFA8AF0FDF79BFEA8EB040AB1
:103BC0001FFA89F11FFA8AF0FDF793FEA8EB0509A9
:103BD0001FFA8BF11FFA89F0FDF78BFE019881B275
:103BE0001FFA8AF0FDF785FE009881B21FFA89F06E
:103BF000FDF77FFE641C002E03DA06EB8406B61D7B
:103C000004E0601B06EB80066D1E0A36AC42B3DD95
:103C1000BDE8FC8F2DE9F84F82461F460C468B46C7
:103C2000580700D0012000EBD70079084843203A1C
:103C3000C0B202F0FF090026009041E00C2F10D026
:103C4000102F12D0182F3ED1634909EBC90001EBA8
:103C500080004FF00008855D28060AD55F4802887D
:103C60000BE009EB49005E49F1E75E4901EB091001
:103C7000EFE70A9828B95948428821465046FDF78F
:103C800043FE6806050E5848641CA4B24088A04252
:103C900019D9A4EB0B00B84209D10AF101001FFAAF
:103CA00080FA51485C46018851450CD906E008F17C
:103CB000010000F0FF08B8F1080FCDD3761CF6B272
:103CC00000988642BAD3BDE8F88F0346012000E091
:103CD0005843491EC9B2FBD270472DE9FF4F81B04E
:103CE0000027DDF838B01D46924680463C46B9466E
:103CF0004FEA5B0627E0281B401EC1B20A20FFF7EF
:103D0000E4FFBAFBF0F00A21B0FBF1F201FB120074
:103D100027B9691E8C4201DA48B101273030C2B29E
:103D200006FB048080B25B46CDF8009006E006FBFF
:103D3000048080B25B462022CDF800900299FFF704
:103D400069FF641CE4B2AC42D5D305B057E62DE957
:103D5000FF4F81B08046DDF83CA00E984FF000097F
:103D60001F4693464C460AF0010546082BE0381BD7
:103D7000401EC1B20A20FFF7A8FFBBFBF0F00A21EA
:103D8000B0FBF1F201FB1200B9F1000F05D1791E71
:103D90008C4202DA48B14FF001093030C2B206FB62
:103DA000048080B200950E9B08E05FEA0A6006FB83
:103DB00004800E9B80B2009508D530220299FFF74F
:103DC00029FF641CE4B2BC42D1D3BEE72022F5E750
:103DD000008021420008006CB2DE000820000020B4
:103DE0004ED40008C2D80008D80900202DE9F84FA9
:103DF000044600F0FF0810190D46DDE90A761FFAA7
:103E000080FA58191FFA80F94FF0000B11E0544561
:103E100002D3E819444685B24D450FD23B462946A8
:103E20002046CDF800B0FFF7F5FE04EB570084B252
:103E3000761C3278A2F120005E28E8D943E7F0B57D
:103E400005461E46059817460C46B14220D180B162
:103E500001280DD123463A4619462846FFF71CFE95
:103E60006D1C7F1E641CADB2BFB2A4B2BD42F1D1C5
:103E7000F0BD23463A4619462846FFF70DFE6D1C55
:103E80007F1E641EADB2BFB2A4B2BD42F1D1F0BD7F
:103E90009542FCD180B10128F9D12A46334621460A
:103EA0001046FFF7F9FD6D1C641C761EA4B2B6B275
:103EB000ADB2B442F1D1F0BD2A4633462146104698
:103EC000FFF7EAFD6D1E641C761EA4B2B6B2ADB259
:103ED000B442F1D1F0BD7CB5604D00245A232C8052
:103EE000462228211420FFF722FE5A2346222821A9
:103EF00014200094FFF785FD5A232C808C22282162
:103F00001846FFF714FE5A238C22282118460094E5
:103F1000FFF777FD2C805A23D2222821A020FFF71B
:103F200006FE5A23D2222821A0200094FFF769FD23
:103F30002C809623462264211420FFF7F8FD962357
:103F40004622642114200094FFF75BFD2C80962309
:103F50008C2264215A20FFF7EAFD96238C226421EB
:103F60005A200094FFF74DFD2C809623D222642125
:103F7000A020FFF7DCFD9623D2226421A02000942C
:103F8000FFF73FFD2C80D2234622A0211420FFF70B
:103F9000CEFDD2234622A02114200094FFF731FD4C
:103FA0002C80D2238C22A0215A20FFF7C0FDD223DF
:103FB0008C22A0215A200094FFF723FDD223A021B8
:103FC0002C801A460846FFF7B2FDD223A0211A46DC
:103FD00008460094FFF715FD042241210A20FFF74F
:103FE000C1FD042241215020FFF7BCFD04224121E4
:103FF0009620FFF7B7FD04227D210A20FFF7B2FDCE
:1040000004227D215020FFF7ADFD4FF478462E802D
:1040100002227D215020FFF7A5FD2C8004227D2166
:104020009620FFF79FFD0422B9210A20FFF79AFD91
:104030000422B9215020FFF795FD0422B9219620D2
:10404000FFF790FD10202E8005A1CDE90001034669
:10405000C82205210020FFF7C9FE7CBD20000020FA
:1040600073636F72653A0000F8B50121282000F0F3
:1040700056FE4FF40065ADF800501027304E8DF815
:10408000037003248DF802406946304600F0CBFAF5
:104090002946304600F031FB0820ADF800008DF8CD
:1040A00003708DF80240274C6946204600F0BBFAA9
:1040B0000821204600F021FB2415ADF800404820DF
:1040C0008DF803006946304600F0ADFA21463046CF
:1040D00000F013FBF8BD401E80B2FCD2704778B5EB
:1040E00000248DF80040184B0125C3F8AC51502036
:1040F000401E80B2FCD2C3F8AC41144E00219DF8A2
:10410000000040088DF80000D3F8280128B99DF878
:10411000000040F080008DF80000C6F88C5150205F
:10412000401E80B2FCD2C6F88C415020401E80B2A6
:10413000FCD2491CC9B20829E1D39DF8000078BD22
:10414000000C014000140140008021420080224206
:1041500008B50121442000F0E2FD1C20ADF800006C
:1041600048208DF803006946364800F05CFA0120CB
:10417000ADF8000028208DF803006946324800F0B1
:1041800052FA08BD2DE9F041304C2F4F2D4D01263C
:1041900008B1267001E02078A0B11021284600F077
:1041A00098FAB0B10821284600F093FA88B10421AA
:1041B000284600F08EFA60B10121384600F089FAF5
:1041C000012806D01021284600F083FA012824D0C7
:1041D00035E00A2000F09FF80020207010212846CA
:1041E00000F077FA80B10821284600F072FA70B129
:1041F0000421284600F06DFA58B10121384600F03C
:1042000068FA012807D01AE00120BDE8F0810220F9
:10421000FBE70320F9E70420F7E70821284600F030
:1042200058FA01280BD10421284600F052FA01283F
:1042300005D10121384600F04CFA00B92670002063
:10424000E3E70000001801400008014024000020BE
:1042500008B5684602F064FC08BD08B5684602F07F
:1042600098FC08BD08B56A46082106F0E9FB08BDC0
:10427000364810B50078012807D102F0DFFB06F0C0
:104280003CFDBDE8104002F0E4BB10BD10B56FF07E
:10429000040000F05EF92E482E492F4B0068304C88
:1042A000B0FBF1F2B0FBF1F01A702C4A1168B4FBCC
:1042B000F1F1414310684FF47A72B2FBF0F058808C
:1042C0004FF0E020026942F002020261416101699F
:1042D00041F00101016110BDF8B54FF0E027002465
:1042E0007E691D49097800FB01F5684602F018FC5B
:1042F000B969B8698842FCD002D2A1EB000102E0A2
:10430000A6EB000211440C440146AC42F1D36846CE
:1043100002F03FFCF8BD70B504460C48007878B157
:104320001048007860B90C4D6888844203D3B4FB10
:10433000F0F0FFF797FF6888B4FBF0F100FB114441
:104340004FF47A706043BDE87040C5E77500002007
:104350000C00002000127A002600002004EE000865
:1043600040420F0074000020704743490A885206FB
:10437000FCD5414AC1B2121D11807047F0B5064606
:1043800087B0012144F2040000F0C9FC3A4D2846F0
:1043900000F024FA6815ADF8100003248DF81240DF
:1043A0001820364F8DF8130004A9384600F03BF969
:1043B0002815ADF8100004208DF8130004A9384624
:1043C00000F031F925208DF814008DF815408DF896
:1043D000164001208DF8170005A800F07AF800219A
:1043E000ADF80810ADF804100C20ADF80610ADF8CB
:1043F0000C10ADF80A0000966946284600F01EFA37
:10440000012240F22551284600F095FA0121284664
:1044100000F087FA07B0F0BD70B502F00FFB164C44
:1044200040F22551204600F03DFBE0B1204600F06F
:10443000D2FA134AC1B21088030414D444044FF0D2
:10444000000304D50A290DD140F4004011E00D29E4
:104450000DD0C0F30D040B4D401C80B229551080C7
:10446000C72800D91380BDE8704002F0F2BA40F4CA
:1044700080401080F7E7000000380140000801404C
:104480002A000020E6090020094880470948004723
:10449000FEE7FEE7FEE7FEE7FEE7FEE7FEE7FEE7F4
:1044A000FEE7FEE704480549054A064B7047000051
:1044B0000915000831010008C02B0020C031002080
:1044C000C02D0020C02D002028490843284908603D
:1044D000704730B50F23C27801780125F2B1244A24
:1044E000126801F1E02102F4E062C2F5E062120A12
:1044F000C2F10404D3404278A24084781C401443A3
:10450000220181F80024007800F01F018D4040094D
:10451000800000F1E020C0F8005130BD01F01F0024
:1045200085404809800000F1E020C0F8805130BD8E
:10453000104A114001430E48001F016070470C4AA9
:10454000121D0029116801D0014300E08143116070
:1045500070474FF0E0210428086903D020F00400E0
:104560000861704740F00400FAE700000000FA0517
:104570000CED00E080FFFF1F8F4910B5884206D187
:104580000121042000F0DDFB002104203BE08B49E9
:10459000884206D10121082000F0D3FB0021082029
:1045A00031E08749884206D10121102000F0C9FB83
:1045B0000021102027E08349884206D101212020D4
:1045C00000F0BFFB002120201DE07F49884206D17A
:1045D0000121402000F0B5FB0021402013E07B4981
:1045E000884206D10121802000F0ABFB0021802011
:1045F00009E0774988420AD184150121204600F05C
:10460000A0FB00212046BDE8104000F09ABB10BD81
:1046100010B50121084600F094FB0021BDE81040D0
:10462000012000F08EBBF0B5CC78002204F00F031F
:10463000E40601D58C7823430C784FF00F0C14F06E
:10464000FF0F4FF0010E1BD005680E880EFA02F422
:104650002640A64210D196000CFA06F725EA070775
:1046600003FA06F5CE783D43282E02D0482E02D01C
:1046700002E0446100E00461521C082AE5D30560B1
:104680000A88FF2A1CD94468002202F108060EFAA3
:1046900006F50E882E40AE420ED196000CFA06F7B3
:1046A000BC4303FA06F7CE783C43282E00D145617F
:1046B000CE78482E00D10561521C082AE5D344600B
:1046C000F0BD4FF6FF710180022181700421C1709D
:1046D00070470246002092680A4200D001207047CD
:1046E000806880B2704702460020D2680A4200D03B
:1046F00001207047C06880B2704701617047416116
:1047000070470AB10161704741617047C1607047ED
:1047100041F4803282618161826181698069704780
:104720002C4B10B51A684FF68074224042EA0010F4
:104730000843186010BD2849C8617047F0B5254C82
:10474000002801DAE36900E06368450D2E0185B2B7
:10475000C0F30157B540C0F30342032F05D0C60292
:104760000AD503269640B34307E023F070626368DE
:1047700023F07063636002E0AB4343F0706201B109
:104780002A43002801DAE261F0BD6260F0BD10B595
:104790008A0721F003040F49120F21440F238C686C
:1047A00093409C438C608B68904003438B6010BDAA
:1047B0000949C1F8DC00704700080140000C0140C5
:1047C000001001400014014000180140001C01408D
:1047D000002001400000014000002042C44910B503
:1047E00088420AD101218C03204600F0AAFA204613
:1047F000BDE81040002100F0A4BABE49884202D1B1
:1048000001214C0410E0BC49884202D101218C04F2
:104810000AE0BA49884202D10121CC0404E0B84937
:1048200088420AD101210C05204600F093FA204667
:10483000BDE81040002100F08DBA10BD30B504462F
:10484000008A85B00D464CF6FF710840E9880143A7
:104850002182A0894EF6F3110840A9882A891143C4
:104860006A8902431143A181A08A4FF6FF410840A3
:10487000A9890143A182684600F006FA9C48844257
:1048800001D1039800E00298A189090400EBC0015E
:1048900001EB0010296801D5490000E08900B0FB58
:1048A000F1F06422B0FBF2F109010B096FF0180579
:1048B0006B4300EB8300A3891D044FF0320306D540
:1048C00003EBC000B0FBF2F000F0070005E003EBE3
:1048D0000010B0FBF2F000F00F000843208105B09B
:1048E00030BD4FF41651016000218180C1800181EB
:1048F0000C2242818181704710B5028A4FF2FF037A
:104900001A400B884C8823438C88C9880C43234366
:104910001343038210BD0021018041808180C1804A
:1049200070470029818902D041F4005101E021F44F
:1049300000518181704710B5C1F3421301F01F048B
:104940000121A140012B07D0022B07D01430002AEF
:10495000026805D00A4304E00C30F8E71030F6E7AF
:104960008A43026010BD002A828A01D00A4300E017
:104970008A4382827047028A22F00F020282028AF0
:104980000A4302827047828922F40062828182890E
:104990000A43828170470029818902D041F00201D7
:1049A00001E021F0020181817047028A22F0200299
:1049B0000282028A0A43028270470029018A02D0D9
:1049C00041F4804101E021F4804101827047C1F34C
:1049D0000801818070478088C0F308007047818992
:1049E00041F0010181817047028BD2B20283028BB8
:1049F00042EA012101837047028B02F47F42028365
:104A0000028B0A43028370470029818A02D041F059
:104A1000200101E021F02001818270470029818A74
:104A200002D041F0100101E021F0100181827047B5
:104A30000029818A02D041F0080101E021F008013B
:104A4000818270470029818902D041F4004101E050
:104A5000C1F30E01818170470029818A02D041F49F
:104A6000006101E021F4006181827047828A22F0B6
:104A700004028282828A0A43828270470029818AE4
:104A800002D041F0020101E021F002018182704771
:104A90000246002012880A4200D001207047C94314
:104AA0000180704770B501F01F0501260024C1F395
:104AB000421306FA05F2012B0FD0022B0FD0838A86
:104AC0004FEA11210088134206FA01F600EA0600B7
:104AD00001D000B10124204670BD8389F0E7038A2C
:104AE000EEE70A0A01219140C943018070470000A6
:104AF000003801400044004000480040004C0040A5
:104B000000500040A548016841F001010160416882
:104B1000A34A114041600168A24A11400160016846
:104B200021F480210160416821F4FE0141604FF4CD
:104B30001F018160704799490A6822F480320A6037
:104B40000A6822F480220A60B0F5803F07D0B0F5F1
:104B5000802F03D1086840F4A020086070470868DF
:104B600040F48030F9E70346002059098B4A0129B7
:104B70000AD002290AD0516A03F01F020123934090
:104B80000B4200D0012070471168F5E7116AF3E786
:104B900018B500204FF4A06400903120FFF7E3FF28
:104BA0000099491C0091A14201D00028F5D0312084
:104BB000FFF7D9FF002800D0012018BD774A1168FF
:104BC00021F0F80141EAC0001060704776490860A2
:104BD0007047724B5A68084322F47C1210435860A5
:104BE00070477149086670476C4A516821F00301AB
:104BF0000143516070476948406800F00C007047FD
:104C0000664A516821F0F001014351607047634AE0
:104C1000516821F4E0610143516070475F4A516877
:104C200021F4605141EAC000506070475B4A00299E
:104C3000517A01D0014300E08143517270475A49D3
:104C4000C1F8D8007047554A516821F440410143EA
:104C5000516070475149002281F8202081F82020BE
:104C6000012802D0042802D1052081F820007047D5
:104C70004E490860704749490A6A02430A62704710
:104C80004A4944390860704730B5444A5168484B36
:104C900011F00C0103D0042901D0082901D00360D0
:104CA00012E05168536801F470114FF0020413F4DC
:104CB000803F04EB914102D053689B0301D53D4BEB
:104CC00000E03B4B5943016051680F2303EA111187
:104CD000394B5C5C0168E14041605468072505EA96
:104CE00014241C5D21FA04F48460546805EAD42479
:104CF0001B5DD940C1605268032303EA92322E4BF8
:104D00001B1F9A5CB1FBF2F1016130BD234A0029FF
:104D1000516901D0014300E08143516170471F4A4E
:104D20000029916901D0014300E0814391617047FE
:104D30001A4A0029D16901D0014300E08143D161C1
:104D40007047164A0029D16801D0014300E0814331
:104D5000D1607047114A0029116901D0014300E078
:104D600081431161704711494039086070470E490D
:104D7000C86470470949C87170470848416A41F0E2
:104D8000807141627047054A0146002092680A42DC
:104D900000D001207047014988727047001002401E
:104DA0000000FFF8FFFFF6FE00004242800442428E
:104DB00000127A0000093D00340000208100A1F1BA
:104DC000C04140B143F2D20008606FF070404860CB
:104DD000C1F8040170474FF0204243F2DB0010603D
:104DE000F3E710B5182340244FF020414FF0FC3278
:104DF000102805D041F8803F4C608A60CA6010BD21
:104E00000B664C668A66CA6610BD4FF020401821BA
:104E100040F8A01F002141604FF0FC318160C1606B
:104E20000161704710B5D0E901121143D0E90323A5
:104E30001A4311434269114382691143C269114304
:104E4000026A1143426A1143826A1143C26A1143E2
:104E5000026B114302689200A2F1C04211608168A6
:104E6000082907D101688900A1F1C0410A6842F010
:104E700040020A60416BD1E9002342EA03128B68C9
:104E80008C891B0243EA04431A430B8A42EA035209
:104E90000B7D896942EA03620A4301688900A1F136
:104EA000C0414A60C16AB1F5804F08D000686FF018
:104EB00070418000A0F1C040C0F8041110BD816BAA
:104EC000D1E9002342EA03128B680C8A1B0243EAF1
:104ED00004531A430B7D896942EA036200680A435E
:104EE0008000A0F1C040C0F8042110BD30B5D0E969
:104EF00001121143D0E903231A431143426941EAE5
:104F00004221826941EA423141F00804C169D1E994
:104F1000002342EA03220B89097B1B0443EA016157
:104F20000A43016AD1E9003543EA05230D89097B6B
:104F30002D0445EA01610B4301684FF02040102920
:104F400004D040F8804F8260C36030BD0466826642
:104F5000C36630BD10B5D0E9001241EA4221826833
:104F6000102343EA423211434FF0204242F8A01F7F
:104F7000C168D1E9003443EA04230C89097B240485
:104F800044EA01610B4393600169D1E9003443EACB
:104F900004230C89097B240444EA01610B43D36098
:104FA0004069D0E9001341EA03210389007B1B0417
:104FB00043EA00600143116110BD10B500210222D7
:104FC000C0E900128160C160016141618161D2026A
:104FD000C161C0E908125200C0E90A210163436BB4
:104FE0000F221A60436B5A60446BFF23A360446B2B
:104FF000E260446B2261446B6261446BA161846B2B
:105000002260846B6260846BA360836BDA60836B65
:105010001A61836B5A61806B816110BD1021016040
:10502000002141608160C160016141618161C269AB
:10503000FC211160C2695160C2699160C269D1608E
:10504000026A1160026A5160026A9160006AC1607E
:1050500070470021016041608160C268FC211160DD
:10506000C2685160C2689160C268D1600269116013
:1050700002695160026991600269D1604269116000
:1050800042695160426991604069C1607047800027
:10509000A0F1C0400029016802D041F0010101E007
:1050A000644A1140016070474FF0204251B110280E
:1050B00004D052F8800F40F004000AE0106E40F077
:1050C00004000AE05B49C91E102804D052F8800F82
:1050D000084010607047106E0840106670474FF02F
:1050E0002041002851F8A00F02D040F0040002E057
:1050F000504AD21E1040086070474FF0204251B114
:10510000102804D052F8800F40F040000AE0106EE2
:1051100040F040000AE047493F39102804D052F8D7
:10512000800F084010607047106E0840106670478E
:105130004FF02041102802D0D1F894007047486FFA
:10514000704710B54FF480744FF0204372B11028AF
:1051500004D0A04205D153F8840F04E0586E0843F0
:105160000DE053F8A40F0843186010BD102804D0B8
:10517000A04206D153F8840F05E0586E8843586664
:1051800010BD53F8A40F8843EEE7034600204FF00C
:105190002042102B08D0B3F5807F07D0D2F8A4208E
:1051A0000A4200D001207047526EF9E7D2F88420FD
:1051B000F6E74FF02042102807D0B0F5807F08D0E6
:1051C00052F8A40F884310607047506E88435066B1
:1051D000704752F8840FF5E7034600204FF0204255
:1051E000102B0CD0B3F5807F0BD0D2F8A4200A424C
:1051F00002EAD10102D0002900D001207047526E8E
:10520000F5E7D2F88420F2E74FF02042102808D0CA
:10521000B0F5807F0AD052F8A40F20EAD1001060C8
:105220007047506E20EAD1005066704752F8840FE4
:10523000F3E70000FEFF0F00FD4A116801F038019E
:10524000014311607047FA490A6822F008020A60B7
:105250000A6802430A607047F5490A6822F01002A2
:105260000A600A6802430A607047F148F1494160E8
:10527000F14941607047EE48EE494160EE494160B6
:105280007047EB48016941F0800101617047E848CF
:10529000016941F0800101617047E5490420CA6855
:1052A000D20701D001207047CA68520701D50220F9
:1052B0007047C968C906FBD50320704700B503468F
:1052C000FFF7EBFF02E0FFF7E8FF5B1E012803D0CA
:1052D000002B00D1052000BD002BF4D1FAE770B5FA
:1052E00005464FF430263046FFF7E8FF042811D179
:1052F000CF4C206940F0020020616561206940F0D8
:10530000400020613046FFF7D9FF216941F6FD7268
:105310001140216170BD30B54FF430252846FFF7AC
:10532000CDFF042810D1C24C206940F00400206158
:10533000206940F0400020612846FFF7BFFF216947
:1053400041F6FB721140216130BD00B50346FFF705
:10535000A4FF02E0FFF7A1FF5B1E012803D0002B92
:1053600000D1052000BD002BF4D1FAE730B54FF491
:1053700030252846FFF7E9FF042810D1AC4C2069FE
:1053800040F004002061206940F040002061284680
:10539000FFF7DBFF216941F6FB721140216130BD4F
:1053A000A3490020C969890700D50120704770B55D
:1053B000A525FFF7F5FF00B100254FF43026304654
:1053C000FFF77CFF042827D1994C9A48A0609A489F
:1053D000A060206940F020002061206940F040007A
:1053E00020613046FFF76AFF41F6EF7604280ED1C0
:1053F000206941F6DF7108402061206940F010000B
:1054000020618E4805804FF40050FFF757FF0528B4
:1054100002D021693140216170BDF8B506460020F7
:105420004FF4005C00900D466046FFF747FF0428EC
:1054300016D17F4C206940F0010020613580604624
:10544000FFF73CFF41F6FE77042806D1B61C280C76
:10545000009630806046FFF731FF216939402161B5
:10546000F8BDF0B506464FF400570D463846FFF735
:1054700025FF04280CD16E4C206940F0010020610A
:1054800035803846FFF71AFF2169BA1E11402161A5
:10549000F0BDF0B506464FF400570D463846FFF70D
:1054A0000DFF042813D1624C6248A0606248A060DE
:1054B000206940F01000206135803846FFF7FEFE7D
:1054C000052804D0216941F6EF7211402161F0BD39
:1054D0002DE9F041C043C7B2C0F30726C0F307452A
:1054E000040E4FF400584046FFF7E8FE04283CD174
:1054F000DFF83CC14F49CCF808104F49CCF80810F0
:10550000DCF8101041F01001CCF81010FF2F07D07C
:105510004A48083007804046FFF7D0FE04281BD1D8
:10552000FF2E07D045480A3006804046FFF7C6FEEA
:10553000042811D1FF2D07D040480C30058040468B
:10554000FFF7BCFE042807D1FF2C07D03B480E30E4
:1055500004804046FFF7B2FE052806D0DCF81010A4
:1055600041F6EF721140CCF81010BDE8F08170B533
:1055700005464FF430263046FFF7A0FE042818D128
:105580002B4C2C48A0602C48A060206940F02000E3
:105590002061206940F0400020613046FFF78EFE18
:1055A00041F6DF71042805D0052802D022690A409F
:1055B000226170BD206908402061206940F0100020
:1055C00020611E480DB1002100E0A5210180304678
:1055D000FFF774FE0528ECD0216941F6EF72114007
:1055E000216170BDF0B5124C0746124816460D46B3
:1055F000A0601148A0604FF4005C6046FFF75EFEBB
:10560000042814D1206940F01000206135430B4973
:105610003D43891C45F0F80008806046FFF74EFEC8
:10562000052804D0216941F6EF7211402161F0BDD7
:105630000020024023016745AB89EFCD00F8FF1F32
:105640001C48C069800870471A48006A70471949A9
:1056500000200968890600D501207047154A0029F5
:10566000116901D0014300E0814311617047014697
:105670000020104A012903D0D2680A4203D17047A2
:10568000D169C907FBD0012070470A49C86070473B
:1056900008490420CA68D20701D001207047CA68AF
:1056A000520701D502207047C968C906FBD50320FF
:1056B000704700000020024000B585B06846FFF743
:1056C000E3FA019805B000BD10B5FFF7F5FF1149E9
:1056D0000A6842F080720A600F4900224A600A6834
:1056E00042F001020A60BDE8104000F075B80A48B7
:1056F0004068704710B50446FFF7DEFF0021074AF7
:105700000B4606F056FE02460B462046002106F0E8
:1057100050FE10BDFCED00E0001000E040420F0024
:1057200010B500F0DFF804461021694800F0D8F900
:105730002046BDE8104000F0D9B8664910B50020F9
:105740000860FFF7C1FFBDE81040E9E7FEE770B56C
:1057500005460C000ED075B100F0C4F806461022C4
:105760005B49284600F0C4FC304600F0BFF800203A
:10577000208070BDFEE70A20088070BD70B50C0067
:10578000054612D095B1102100F0A4FC102810D2CB
:1057900000F0A8F80646102229464D4800F0A8FC63
:1057A000304600F0A3F8002005E0FEE70A2008805C
:1057B00070BD4FF47A70208070BDFFF798BF7047BE
:1057C000020004D04348006810B1002102E0FEE767
:1057D0004FF4FA61118070473E490860704710B578
:1057E00000F08BF8183810BD10B500F086F81038AE
:1057F00010BD00F082B8F0B50C0E0B0C0D0A00269F
:10580000354AD0F1FF378E411BD24FF6FF76D0F1EB
:10581000FF378E410AD26FF07F45D0F1FF308D41C6
:1058200001D2105DF0BDD05C0830F0BDFF23D0F197
:10583000FF308B4102D2505D1030F0BD505C18300B
:10584000F0BD4FF6FF740023241A8B4111D26FF084
:105850007F440023241A8B4105D2000E40EA012028
:10586000105C2030F0BD000C40EA0140105C283094
:10587000F0BD0023D0F1FF048B4105D2000A40EABD
:105880000160105C3030F0BD105C3830F0BD08B104
:1058900000F036B80820704708B100F031B8102089
:1058A000704708B100F02CB82020704700B550EACE
:1058B00001020BD0C243521CCB4343F10003104002
:1058C0001940FFF798FFC0F13F0000BD402000BD28
:1058D000AE0A0020440000200EEC000872B67047AB
:1058E00062B67047EFF3108072B6704780F310888D
:1058F000704730BF704720BF7047B0FA80F07047E4
:1059000090FAA0F0B0FA80F0704790FAA0F07047DB
:10591000A0F14101192902D96138192801D80120C3
:10592000704700207047A0F14101192905D920399D
:10593000192902D93038092801D8012070470020E0
:1059400070476138192801D801207047002070473E
:105950004138192801D8012070470020704730389D
:10596000092801D8012070470020704730380728E7
:1059700001D80120704700207047A0F130010929AB
:1059800005D91139052902D96138052801D8012026
:10599000704700207047202803D0092801D000203C
:1059A00070470120704720280BD00D2809D00A2805
:1059B00007D00C2805D0092803D00B2801D00020DF
:1059C00070470120704720385E2801D801207047B9
:1059D0000020704721385D2801D801207047002041
:1059E0007047A0F120015E2916D8202814D00D2878
:1059F00012D00A2810D00C280ED009280CD00B2861
:105A00000AD021391A2907D320391A2904D330386A
:105A10000A2801D3012070470020704741B20029B5
:105A200001DB1F2803D97F2801D000207047012007
:105A30007047A0F14101192900D82030C0B2704749
:105A4000A0F16101192900D82038C0B2704700B513
:105A50000B46FFF7F5FF02461846FFF7F1FF8242BB
:105A600001D1012000BD002000BD0000FD48FE491D
:105A70000246C0E9001200218160C16001614161FC
:105A80008161C16101620163C162416200F148014B
:105A90008163C1634FF4806101644164F348026033
:105AA000704710B500231C46641C41EA0323042CF4
:105AB000FAD310F0030404D109E0521E00F8011BD0
:105AC000641C22B1042CF8D301E008C0121F042A80
:105AD000FBD202E000F8011B521E002AFAD110BDD1
